{
  "_format": "hh-sol-artifact-1",
  "contractName": "ApplicationRegistry",
  "sourceName": "contracts/ApplicationRegistry.sol",
  "abi": [
    {
      "anonymous": false,
      "inputs": [
        {
          "indexed": false,
          "internalType": "address",
          "name": "previousAdmin",
          "type": "address"
        },
        {
          "indexed": false,
          "internalType": "address",
          "name": "newAdmin",
          "type": "address"
        }
      ],
      "name": "AdminChanged",
      "type": "event"
    },
    {
      "anonymous": false,
      "inputs": [
        {
          "indexed": true,
          "internalType": "uint96",
          "name": "applicationId",
          "type": "uint96"
        },
        {
          "indexed": false,
          "internalType": "address",
          "name": "grant",
          "type": "address"
        },
        {
          "indexed": false,
          "internalType": "address",
          "name": "owner",
          "type": "address"
        },
        {
          "indexed": false,
          "internalType": "string",
          "name": "metadataHash",
          "type": "string"
        },
        {
          "indexed": false,
          "internalType": "uint48",
          "name": "milestoneCount",
          "type": "uint48"
        },
        {
          "indexed": false,
          "internalType": "uint256",
          "name": "time",
          "type": "uint256"
        }
      ],
      "name": "ApplicationSubmitted",
      "type": "event"
    },
    {
      "anonymous": false,
      "inputs": [
        {
          "indexed": true,
          "internalType": "uint96",
          "name": "applicationId",
          "type": "uint96"
        },
        {
          "indexed": false,
          "internalType": "address",
          "name": "owner",
          "type": "address"
        },
        {
          "indexed": false,
          "internalType": "string",
          "name": "metadataHash",
          "type": "string"
        },
        {
          "indexed": false,
          "internalType": "enum ApplicationRegistry.ApplicationState",
          "name": "state",
          "type": "uint8"
        },
        {
          "indexed": false,
          "internalType": "uint48",
          "name": "milestoneCount",
          "type": "uint48"
        },
        {
          "indexed": false,
          "internalType": "uint256",
          "name": "time",
          "type": "uint256"
        }
      ],
      "name": "ApplicationUpdated",
      "type": "event"
    },
    {
      "anonymous": false,
      "inputs": [
        {
          "indexed": true,
          "internalType": "address",
          "name": "beacon",
          "type": "address"
        }
      ],
      "name": "BeaconUpgraded",
      "type": "event"
    },
    {
      "anonymous": false,
      "inputs": [
        {
          "indexed": false,
          "internalType": "uint8",
          "name": "version",
          "type": "uint8"
        }
      ],
      "name": "Initialized",
      "type": "event"
    },
    {
      "anonymous": false,
      "inputs": [
        {
          "indexed": false,
          "internalType": "uint96",
          "name": "_id",
          "type": "uint96"
        },
        {
          "indexed": false,
          "internalType": "uint96",
          "name": "_milestoneId",
          "type": "uint96"
        },
        {
          "indexed": false,
          "internalType": "enum ApplicationRegistry.MilestoneState",
          "name": "_state",
          "type": "uint8"
        },
        {
          "indexed": false,
          "internalType": "string",
          "name": "_metadataHash",
          "type": "string"
        },
        {
          "indexed": false,
          "internalType": "uint256",
          "name": "time",
          "type": "uint256"
        }
      ],
      "name": "MilestoneUpdated",
      "type": "event"
    },
    {
      "anonymous": false,
      "inputs": [
        {
          "indexed": true,
          "internalType": "address",
          "name": "previousOwner",
          "type": "address"
        },
        {
          "indexed": true,
          "internalType": "address",
          "name": "newOwner",
          "type": "address"
        }
      ],
      "name": "OwnershipTransferred",
      "type": "event"
    },
    {
      "anonymous": false,
      "inputs": [
        {
          "indexed": true,
          "internalType": "address",
          "name": "implementation",
          "type": "address"
        }
      ],
      "name": "Upgraded",
      "type": "event"
    },
    {
      "inputs": [],
      "name": "applicationCount",
      "outputs": [
        {
          "internalType": "uint96",
          "name": "",
          "type": "uint96"
        }
      ],
      "stateMutability": "view",
      "type": "function"
    },
    {
      "inputs": [
        {
          "internalType": "uint96",
          "name": "",
          "type": "uint96"
        },
        {
          "internalType": "uint48",
          "name": "",
          "type": "uint48"
        }
      ],
      "name": "applicationMilestones",
      "outputs": [
        {
          "internalType": "enum ApplicationRegistry.MilestoneState",
          "name": "",
          "type": "uint8"
        }
      ],
      "stateMutability": "view",
      "type": "function"
    },
    {
      "inputs": [],
      "name": "applicationReviewReg",
      "outputs": [
        {
          "internalType": "contract IApplicationReviewRegistry",
          "name": "",
          "type": "address"
        }
      ],
      "stateMutability": "view",
      "type": "function"
    },
    {
      "inputs": [
        {
          "internalType": "uint96",
          "name": "",
          "type": "uint96"
        }
      ],
      "name": "applications",
      "outputs": [
        {
          "internalType": "uint96",
          "name": "id",
          "type": "uint96"
        },
        {
          "internalType": "uint96",
          "name": "workspaceId",
          "type": "uint96"
        },
        {
          "internalType": "address",
          "name": "grant",
          "type": "address"
        },
        {
          "internalType": "address",
          "name": "owner",
          "type": "address"
        },
        {
          "internalType": "uint48",
          "name": "milestoneCount",
          "type": "uint48"
        },
        {
          "internalType": "uint48",
          "name": "milestonesDone",
          "type": "uint48"
        },
        {
          "internalType": "string",
          "name": "metadataHash",
          "type": "string"
        },
        {
          "internalType": "enum ApplicationRegistry.ApplicationState",
          "name": "state",
          "type": "uint8"
        }
      ],
      "stateMutability": "view",
      "type": "function"
    },
    {
      "inputs": [
        {
          "internalType": "uint96",
          "name": "_applicationId",
          "type": "uint96"
        },
        {
          "internalType": "uint48",
          "name": "_milestoneId",
          "type": "uint48"
        },
        {
          "internalType": "uint96",
          "name": "_workspaceId",
          "type": "uint96"
        },
        {
          "internalType": "string",
          "name": "_reasonMetadataHash",
          "type": "string"
        }
      ],
      "name": "approveMilestone",
      "outputs": [],
      "stateMutability": "nonpayable",
      "type": "function"
    },
    {
      "inputs": [
        {
          "internalType": "uint96[]",
          "name": "_applicationIds",
          "type": "uint96[]"
        },
        {
          "internalType": "enum ApplicationRegistry.ApplicationState[]",
          "name": "_applicationStates",
          "type": "uint8[]"
        },
        {
          "internalType": "uint96",
          "name": "_workspaceId",
          "type": "uint96"
        }
      ],
      "name": "batchUpdateApplicationState",
      "outputs": [],
      "stateMutability": "nonpayable",
      "type": "function"
    },
    {
      "inputs": [
        {
          "internalType": "uint96",
          "name": "_applicationId",
          "type": "uint96"
        },
        {
          "internalType": "uint96",
          "name": "_workspaceId",
          "type": "uint96"
        },
        {
          "internalType": "string",
          "name": "_reasonMetadataHash",
          "type": "string"
        }
      ],
      "name": "completeApplication",
      "outputs": [],
      "stateMutability": "nonpayable",
      "type": "function"
    },
    {
      "inputs": [
        {
          "internalType": "uint96",
          "name": "_applicationId",
          "type": "uint96"
        }
      ],
      "name": "getApplicationOwner",
      "outputs": [
        {
          "internalType": "address",
          "name": "",
          "type": "address"
        }
      ],
      "stateMutability": "view",
      "type": "function"
    },
    {
      "inputs": [
        {
          "internalType": "uint96",
          "name": "_applicationId",
          "type": "uint96"
        }
      ],
      "name": "getApplicationWorkspace",
      "outputs": [
        {
          "internalType": "uint96",
          "name": "",
          "type": "uint96"
        }
      ],
      "stateMutability": "view",
      "type": "function"
    },
    {
      "inputs": [],
      "name": "initialize",
      "outputs": [],
      "stateMutability": "nonpayable",
      "type": "function"
    },
    {
      "inputs": [],
      "name": "owner",
      "outputs": [
        {
          "internalType": "address",
          "name": "",
          "type": "address"
        }
      ],
      "stateMutability": "view",
      "type": "function"
    },
    {
      "inputs": [],
      "name": "proxiableUUID",
      "outputs": [
        {
          "internalType": "bytes32",
          "name": "",
          "type": "bytes32"
        }
      ],
      "stateMutability": "view",
      "type": "function"
    },
    {
      "inputs": [],
      "name": "renounceOwnership",
      "outputs": [],
      "stateMutability": "nonpayable",
      "type": "function"
    },
    {
      "inputs": [
        {
          "internalType": "uint96",
          "name": "_applicationId",
          "type": "uint96"
        },
        {
          "internalType": "uint48",
          "name": "_milestoneId",
          "type": "uint48"
        },
        {
          "internalType": "string",
          "name": "_reasonMetadataHash",
          "type": "string"
        }
      ],
      "name": "requestMilestoneApproval",
      "outputs": [],
      "stateMutability": "nonpayable",
      "type": "function"
    },
    {
      "inputs": [
        {
          "internalType": "contract IApplicationReviewRegistry",
          "name": "_applicationReviewReg",
          "type": "address"
        }
      ],
      "name": "setApplicationReviewReg",
      "outputs": [],
      "stateMutability": "nonpayable",
      "type": "function"
    },
    {
      "inputs": [
        {
          "internalType": "contract IWorkspaceRegistry",
          "name": "_workspaceReg",
          "type": "address"
        }
      ],
      "name": "setWorkspaceReg",
      "outputs": [],
      "stateMutability": "nonpayable",
      "type": "function"
    },
    {
      "inputs": [
        {
          "internalType": "address",
          "name": "_grant",
          "type": "address"
        },
        {
          "internalType": "uint96",
          "name": "_workspaceId",
          "type": "uint96"
        },
        {
          "internalType": "string",
          "name": "_metadataHash",
          "type": "string"
        },
        {
          "internalType": "uint48",
          "name": "_milestoneCount",
          "type": "uint48"
        }
      ],
      "name": "submitApplication",
      "outputs": [],
      "stateMutability": "nonpayable",
      "type": "function"
    },
    {
      "inputs": [
        {
          "internalType": "address",
          "name": "newOwner",
          "type": "address"
        }
      ],
      "name": "transferOwnership",
      "outputs": [],
      "stateMutability": "nonpayable",
      "type": "function"
    },
    {
      "inputs": [
        {
          "internalType": "uint96",
          "name": "_applicationId",
          "type": "uint96"
        },
        {
          "internalType": "string",
          "name": "_metadataHash",
          "type": "string"
        },
        {
          "internalType": "uint48",
          "name": "_milestoneCount",
          "type": "uint48"
        }
      ],
      "name": "updateApplicationMetadata",
      "outputs": [],
      "stateMutability": "nonpayable",
      "type": "function"
    },
    {
      "inputs": [
        {
          "internalType": "uint96",
          "name": "_applicationId",
          "type": "uint96"
        },
        {
          "internalType": "uint96",
          "name": "_workspaceId",
          "type": "uint96"
        },
        {
          "internalType": "enum ApplicationRegistry.ApplicationState",
          "name": "_state",
          "type": "uint8"
        },
        {
          "internalType": "string",
          "name": "_reasonMetadataHash",
          "type": "string"
        }
      ],
      "name": "updateApplicationState",
      "outputs": [],
      "stateMutability": "nonpayable",
      "type": "function"
    },
    {
      "inputs": [
        {
          "internalType": "address",
          "name": "newImplementation",
          "type": "address"
        }
      ],
      "name": "upgradeTo",
      "outputs": [],
      "stateMutability": "nonpayable",
      "type": "function"
    },
    {
      "inputs": [
        {
          "internalType": "address",
          "name": "newImplementation",
          "type": "address"
        },
        {
          "internalType": "bytes",
          "name": "data",
          "type": "bytes"
        }
      ],
      "name": "upgradeToAndCall",
      "outputs": [],
      "stateMutability": "payable",
      "type": "function"
    },
    {
      "inputs": [],
      "name": "workspaceReg",
      "outputs": [
        {
          "internalType": "contract IWorkspaceRegistry",
          "name": "",
          "type": "address"
        }
      ],
      "stateMutability": "view",
      "type": "function"
    }
  ],
  "bytecode": "0x60a06040523060601b60805234801561001757600080fd5b5060805160601c613012610052600039600081816109bc015281816109fc01528181610a9c01528181610adc0152610d6e01526130126000f3fe6080604052600436106101405760003560e01c80638c1dceac116100b6578063d54715b51161006f578063d54715b5146103b6578063e2aad4a0146103d6578063e30a1c00146103f6578063ea3b29c714610416578063f2fde38b14610436578063fcdd92801461045657600080fd5b80638c1dceac146102d05780638cd76983146102f05780638da5cb5b1461031057806394896c5714610342578063af7eb0c314610362578063cd0fea191461039657600080fd5b80635071e583116101085780635071e5831461020b57806352d1902d1461022b578063689b748f1461024e578063715018a6146102865780638129fc1c1461029b57806387a96777146102b057600080fd5b80630b1ef38c146101455780632370109f14610167578063260e3999146101875780633659cfe6146101d85780634f1ef286146101f8575b600080fd5b34801561015157600080fd5b50610165610160366004612936565b610476565b005b34801561017357600080fd5b506101656101823660046128c7565b610717565b34801561019357600080fd5b506101c26101a2366004612836565b60cc60209081526000928352604080842090915290825290205460ff1681565b6040516101cf9190612a9f565b60405180910390f35b3480156101e457600080fd5b506101656101f33660046125c2565b6109b1565b6101656102063660046125df565b610a91565b34801561021757600080fd5b506101656102263660046127e1565b610b62565b34801561023757600080fd5b50610240610d61565b6040519081526020016101cf565b34801561025a57600080fd5b5061026e6102693660046127c6565b610e14565b6040516001600160601b0390911681526020016101cf565b34801561029257600080fd5b50610165610f72565b3480156102a757600080fd5b50610165610f86565b3480156102bc57600080fd5b506101656102cb366004612971565b611096565b3480156102dc57600080fd5b506101656102eb3660046125c2565b611271565b3480156102fc57600080fd5b5061016561030b3660046125c2565b61129b565b34801561031c57600080fd5b506097546001600160a01b03165b6040516001600160a01b0390911681526020016101cf565b34801561034e57600080fd5b5061016561035d366004612869565b6112c5565b34801561036e57600080fd5b5061038261037d3660046127c6565b6115c2565b6040516101cf989796959493929190612d7b565b3480156103a257600080fd5b5060ce5461032a906001600160a01b031681565b3480156103c257600080fd5b506101656103d1366004612643565b6116b7565b3480156103e257600080fd5b5060c95461026e906001600160601b031681565b34801561040257600080fd5b506101656104113660046126b4565b611bc3565b34801561042257600080fd5b5061032a6104313660046127c6565b611d54565b34801561044257600080fd5b506101656104513660046125c2565b611eb2565b34801561046257600080fd5b5060cd5461032a906001600160a01b031681565b60cd54604051633183c01760e21b815284916001600160a01b03169063c60f005c906104a89084903390600401612d0a565b60206040518083038186803b1580156104c057600080fd5b505afa1580156104d4573d6000803e3d6000fd5b505050506040513d601f19601f820116820180604052508101906104f8919061278b565b61051d5760405162461bcd60e51b815260040161051490612c85565b60405180910390fd5b6001600160601b03858116600090815260ca6020526040902080549091868116600160601b90920416146105635760405162461bcd60e51b815260040161051490612b0f565b600060048083015460ff169081111561057e5761057e612f67565b14801561059c5750600184600481111561059a5761059a612f67565b145b806105db5750600060048083015460ff16908111156105bd576105bd612f67565b1480156105db575060028460048111156105d9576105d9612f67565b145b8061061a5750600060048083015460ff16908111156105fc576105fc612f67565b14801561061a5750600384600481111561061857610618612f67565b145b1561064f57838160040160006101000a81548160ff0219169083600481111561064557610645612f67565b02179055506106b0565b60405162461bcd60e51b815260206004820152603060248201527f4170706c69636174696f6e53746174655570646174653a20496e76616c69642060448201526f39ba30ba32903a3930b739b4ba34b7b760811b6064820152608401610514565b856001600160601b03167f142714a3165a45d631709d23edc810be3319ddf729ade44aa9edeeaf8ad94bbc3385878560020160149054906101000a900465ffffffffffff1642604051610707959493929190612a51565b60405180910390a2505050505050565b60cd54604051633183c01760e21b815283916001600160a01b03169063c60f005c906107499084903390600401612d0a565b60206040518083038186803b15801561076157600080fd5b505afa158015610775573d6000803e3d6000fd5b505050506040513d601f19601f82011682018060405250810190610799919061278b565b6107b55760405162461bcd60e51b815260040161051490612c85565b6001600160601b03858116600090815260ca6020526040902080549091858116600160601b90920416146107fb5760405162461bcd60e51b815260040161051490612b0f565b600260048083015460ff169081111561081657610816612f67565b146108335760405162461bcd60e51b815260040161051490612ac0565b600281015465ffffffffffff600160a01b9091048116908616106108695760405162461bcd60e51b815260040161051490612bf0565b6001600160601b038616600090815260cc6020908152604080832065ffffffffffff8916845290915281205460ff16908160028111156108ab576108ab612f67565b14806108c8575060018160028111156108c6576108c6612f67565b145b15610908576001600160601b038716600090815260cc6020908152604080832065ffffffffffff8a1684529091529020805460ff19166002179055610920565b60405162461bcd60e51b815260040161051490612cbc565b600182600201601a8282829054906101000a900465ffffffffffff166109469190612e47565b92506101000a81548165ffffffffffff021916908365ffffffffffff1602179055507f29ab17304eeb4eb47b211d847bfaa68920b168c73b12cdac06b3f6b9e93dd9ca8787600287426040516109a0959493929190612d2c565b60405180910390a150505050505050565b306001600160a01b037f00000000000000000000000000000000000000000000000000000000000000001614156109fa5760405162461bcd60e51b815260040161051490612b58565b7f00000000000000000000000000000000000000000000000000000000000000006001600160a01b0316610a43600080516020612fbf833981519152546001600160a01b031690565b6001600160a01b031614610a695760405162461bcd60e51b815260040161051490612ba4565b610a7281611f28565b60408051600080825260208201909252610a8e91839190611f30565b50565b306001600160a01b037f0000000000000000000000000000000000000000000000000000000000000000161415610ada5760405162461bcd60e51b815260040161051490612b58565b7f00000000000000000000000000000000000000000000000000000000000000006001600160a01b0316610b23600080516020612fbf833981519152546001600160a01b031690565b6001600160a01b031614610b495760405162461bcd60e51b815260040161051490612ba4565b610b5282611f28565b610b5e82826001611f30565b5050565b6001600160601b038316600090815260ca6020526040902060028101546001600160a01b03163314610bd65760405162461bcd60e51b815260206004820152601f60248201527f4170706c69636174696f6e5570646174653a20556e617574686f7269736564006044820152606401610514565b600160048083015460ff1690811115610bf157610bf1612f67565b1480610c155750600060048083015460ff1690811115610c1357610c13612f67565b145b610c615760405162461bcd60e51b815260206004820181905260248201527f4170706c69636174696f6e5570646174653a20496e76616c69642073746174656044820152606401610514565b60005b600282015465ffffffffffff600160a01b90910481169082161015610cc8576001600160601b038516600090815260cc6020908152604080832065ffffffffffff851684529091529020805460ff1916905580610cc081612f15565b915050610c64565b5060028101805465ffffffffffff60a01b1916600160a01b65ffffffffffff8516021790558251610d0290600383019060208601906123f7565b5060048101805460ff191690556040516001600160601b038516907f142714a3165a45d631709d23edc810be3319ddf729ade44aa9edeeaf8ad94bbc90610d53903390879060009088904290612a51565b60405180910390a250505050565b6000306001600160a01b037f00000000000000000000000000000000000000000000000000000000000000001614610e015760405162461bcd60e51b815260206004820152603860248201527f555550535570677261646561626c653a206d757374206e6f742062652063616c60448201527f6c6564207468726f7567682064656c656761746563616c6c00000000000000006064820152608401610514565b50600080516020612fbf83398151915290565b6001600160601b03808216600090815260ca6020908152604080832081516101008101835281548087168252600160601b90049095169285019290925260018201546001600160a01b03908116918501919091526002820154908116606085015265ffffffffffff600160a01b820481166080860152600160d01b9091041660a08401526003810180549293849390929160c0840191610eb390612ebf565b80601f0160208091040260200160405190810160405280929190818152602001828054610edf90612ebf565b8015610f2c5780601f10610f0157610100808354040283529160200191610f2c565b820191906000526020600020905b815481529060010190602001808311610f0f57829003601f168201915b505050918352505060048281015460209092019160ff1690811115610f5357610f53612f67565b6004811115610f6457610f64612f67565b905250602001519392505050565b610f7a6120af565b610f846000612109565b565b600054610100900460ff1615808015610fa65750600054600160ff909116105b80610fc05750303b158015610fc0575060005460ff166001145b6110235760405162461bcd60e51b815260206004820152602e60248201527f496e697469616c697a61626c653a20636f6e747261637420697320616c72656160448201526d191e481a5b9a5d1a585b1a5e995960921b6064820152608401610514565b6000805460ff191660011790558015611046576000805461ff0019166101001790555b61104e61215b565b8015610a8e576000805461ff0019169055604051600181527f7f26b83ff96e1f2b6a682f133852f6798a09c465da95921460cefb38474024989060200160405180910390a150565b60cd54604051633183c01760e21b815283916001600160a01b03169063c60f005c906110c89084903390600401612d0a565b60206040518083038186803b1580156110e057600080fd5b505afa1580156110f4573d6000803e3d6000fd5b505050506040513d601f19601f82011682018060405250810190611118919061278b565b6111345760405162461bcd60e51b815260040161051490612c85565b6001600160601b03848116600090815260ca6020526040902080549091858116600160601b909204161461117a5760405162461bcd60e51b815260040161051490612b0f565b6002810154600160d01b810465ffffffffffff908116600160a01b90920416146111fc5760405162461bcd60e51b815260206004820152602d60248201527f436f6d706c6574654170706c69636174696f6e3a20496e76616c6964206d696c60448201526c6573746f6e657320737461746560981b6064820152608401610514565b6004818101805460ff19168217905560028201546040516001600160601b038816927f142714a3165a45d631709d23edc810be3319ddf729ade44aa9edeeaf8ad94bbc9261126292339289929091600160a01b90910465ffffffffffff16904290612a51565b60405180910390a25050505050565b6112796120af565b60cd80546001600160a01b0319166001600160a01b0392909216919091179055565b6112a36120af565b60ce80546001600160a01b0319166001600160a01b0392909216919091179055565b6001600160601b03808416600090815260ca6020908152604080832081516101008101835281548087168252600160601b90049095169285019290925260018201546001600160a01b03908116918501919091526002820154908116606085015265ffffffffffff600160a01b820481166080860152600160d01b9091041660a084015260038101805492939260c08401919061136190612ebf565b80601f016020809104026020016040519081016040528092919081815260200182805461138d90612ebf565b80156113da5780601f106113af576101008083540402835291602001916113da565b820191906000526020600020905b8154815290600101906020018083116113bd57829003601f168201915b505050918352505060048281015460209092019160ff169081111561140157611401612f67565b600481111561141257611412612f67565b90525060608101519091506001600160a01b0316331461147f5760405162461bcd60e51b815260206004820152602260248201527f4d696c6573746f6e6553746174655570646174653a20556e617574686f726973604482015261195960f21b6064820152608401610514565b60028160e00151600481111561149757611497612f67565b146114b45760405162461bcd60e51b815260040161051490612ac0565b806080015165ffffffffffff168365ffffffffffff16106114e75760405162461bcd60e51b815260040161051490612bf0565b6001600160601b038416600090815260cc6020908152604080832065ffffffffffff8716845290915281205460ff16600281111561152757611527612f67565b146115445760405162461bcd60e51b815260040161051490612cbc565b6001600160601b038416600090815260cc6020908152604080832065ffffffffffff8716845290915290819020805460ff1916600190811790915590517f29ab17304eeb4eb47b211d847bfaa68920b168c73b12cdac06b3f6b9e93dd9ca916115b4918791879187904290612d2c565b60405180910390a150505050565b60ca6020526000908152604090208054600182015460028301546003840180546001600160601b0380861696600160601b90960416946001600160a01b039485169484169365ffffffffffff600160a01b8204811694600160d01b909204169261162b90612ebf565b80601f016020809104026020016040519081016040528092919081815260200182805461165790612ebf565b80156116a45780601f10611679576101008083540402835291602001916116a4565b820191906000526020600020905b81548152906001019060200180831161168757829003601f168201915b5050506004909301549192505060ff1688565b33600090815260cb602090815260408083206001600160a01b038816845290915290205460ff16156117445760405162461bcd60e51b815260206004820152603060248201527f4170706c69636174696f6e5375626d69743a20416c7265616479206170706c6960448201526f656420746f206772616e74206f6e636560801b6064820152608401610514565b6000849050806001600160a01b03166302fb0c5e6040518163ffffffff1660e01b815260040160206040518083038186803b15801561178257600080fd5b505afa158015611796573d6000803e3d6000fd5b505050506040513d601f19601f820116820180604052508101906117ba919061278b565b6118065760405162461bcd60e51b815260206004820181905260248201527f4170706c69636174696f6e5375626d69743a20496e76616c6964206772616e746044820152606401610514565b60c9546001600160601b03168061181e816001612e71565b6001600160601b03161161183457611834612f3b565b60c98054600191906000906118539084906001600160601b0316612e71565b92506101000a8154816001600160601b0302191690836001600160601b03160217905550604051806101000160405280826001600160601b03168152602001866001600160601b03168152602001876001600160a01b03168152602001336001600160a01b031681526020018465ffffffffffff168152602001600065ffffffffffff168152602001858152602001600060048111156118f5576118f5612f67565b90526001600160601b03828116600090815260ca602090815260409182902084518154868401519186166001600160c01b031990911617600160601b9190951602939093178355908301516001830180546001600160a01b0319166001600160a01b039283161790556060840151600284018054608087015160a0880151939094166001600160d01b031990911617600160a01b65ffffffffffff94851602176001600160d01b0316600160d01b939092169290920217905560c083015180516119c592600385019201906123f7565b5060e08201518160040160006101000a81548160ff021916908360048111156119f0576119f0612f67565b02179055505033600081815260cb602090815260408083206001600160a01b038c16845290915290819020805460ff19166001179055516001600160601b03841692507fc927c30e4518e670d74fa5113a757f659acac3674d1699fea3f978d2a4296c9e91611a67918a9190899089904290612a09565b60405180910390a2816001600160a01b03166330eb107f6040518163ffffffff1660e01b8152600401600060405180830381600087803b158015611aaa57600080fd5b505af1158015611abe573d6000803e3d6000fd5b505060ce54604051630d7639e760e21b81526001600160a01b038a8116600483015290911692506335d8e79c915060240160206040518083038186803b158015611b0757600080fd5b505afa158015611b1b573d6000803e3d6000fd5b505050506040513d601f19601f82011682018060405250810190611b3f919061278b565b15611bbb5760ce54604051633e08057160e01b81526001600160601b038088166004830152831660248201526001600160a01b03888116604483015290911690633e08057190606401600060405180830381600087803b158015611ba257600080fd5b505af1158015611bb6573d6000803e3d6000fd5b505050505b505050505050565b60cd54604051633183c01760e21b815282916001600160a01b03169063c60f005c90611bf59084903390600401612d0a565b60206040518083038186803b158015611c0d57600080fd5b505afa158015611c21573d6000803e3d6000fd5b505050506040513d601f19601f82011682018060405250810190611c45919061278b565b611c615760405162461bcd60e51b815260040161051490612c85565b8251845114611cd85760405162461bcd60e51b815260206004820152603a60248201527f6170706c69636174696f6e49647320616e64206170706c69636174696f6e537460448201527f61746573206172726179206c656e677468206d69736d617463680000000000006064820152608401610514565b60005b8451811015611d4d57611d3b858281518110611cf957611cf9612f7d565b602002602001015184868481518110611d1457611d14612f7d565b6020026020010151604051806040016040528060018152602001600160fd1b815250610476565b80611d4581612efa565b915050611cdb565b5050505050565b6001600160601b03808216600090815260ca6020908152604080832081516101008101835281548087168252600160601b90049095169285019290925260018201546001600160a01b03908116918501919091526002820154908116606085015265ffffffffffff600160a01b820481166080860152600160d01b9091041660a08401526003810180549293849390929160c0840191611df390612ebf565b80601f0160208091040260200160405190810160405280929190818152602001828054611e1f90612ebf565b8015611e6c5780601f10611e4157610100808354040283529160200191611e6c565b820191906000526020600020905b815481529060010190602001808311611e4f57829003601f168201915b505050918352505060048281015460209092019160ff1690811115611e9357611e93612f67565b6004811115611ea457611ea4612f67565b905250606001519392505050565b611eba6120af565b6001600160a01b038116611f1f5760405162461bcd60e51b815260206004820152602660248201527f4f776e61626c653a206e6577206f776e657220697320746865207a65726f206160448201526564647265737360d01b6064820152608401610514565b610a8e81612109565b610a8e6120af565b7f4910fdfa16fed3260ed0e7147f7cc6da11a60208b5b9406d12a635614ffd91435460ff1615611f6857611f638361218a565b505050565b826001600160a01b03166352d1902d6040518163ffffffff1660e01b815260040160206040518083038186803b158015611fa157600080fd5b505afa925050508015611fd1575060408051601f3d908101601f19168201909252611fce918101906127ad565b60015b6120345760405162461bcd60e51b815260206004820152602e60248201527f45524331393637557067726164653a206e657720696d706c656d656e7461746960448201526d6f6e206973206e6f74205555505360901b6064820152608401610514565b600080516020612fbf83398151915281146120a35760405162461bcd60e51b815260206004820152602960248201527f45524331393637557067726164653a20756e737570706f727465642070726f786044820152681a58589b195555525160ba1b6064820152608401610514565b50611f63838383612226565b6097546001600160a01b03163314610f845760405162461bcd60e51b815260206004820181905260248201527f4f776e61626c653a2063616c6c6572206973206e6f7420746865206f776e65726044820152606401610514565b609780546001600160a01b038381166001600160a01b0319831681179093556040519116919082907f8be0079c531659141344cd1fd0a4f28419497f9722a3daafe3b4186f6b6457e090600090a35050565b600054610100900460ff166121825760405162461bcd60e51b815260040161051490612c3a565b610f84612251565b6001600160a01b0381163b6121f75760405162461bcd60e51b815260206004820152602d60248201527f455243313936373a206e657720696d706c656d656e746174696f6e206973206e60448201526c1bdd08184818dbdb9d1c9858dd609a1b6064820152608401610514565b600080516020612fbf83398151915280546001600160a01b0319166001600160a01b0392909216919091179055565b61222f83612281565b60008251118061223c5750805b15611f635761224b83836122c1565b50505050565b600054610100900460ff166122785760405162461bcd60e51b815260040161051490612c3a565b610f8433612109565b61228a8161218a565b6040516001600160a01b038216907fbc7cd75a20ee27fd9adebab32041f755214dbc6bffa90cc0225b39da2e5c2d3b90600090a250565b60606001600160a01b0383163b6123295760405162461bcd60e51b815260206004820152602660248201527f416464726573733a2064656c65676174652063616c6c20746f206e6f6e2d636f6044820152651b9d1c9858dd60d21b6064820152608401610514565b600080846001600160a01b03168460405161234491906129ed565b600060405180830381855af49150503d806000811461237f576040519150601f19603f3d011682016040523d82523d6000602084013e612384565b606091505b50915091506123ac8282604051806060016040528060278152602001612fdf602791396123b7565b925050505b92915050565b606083156123c65750816123f0565b8251156123d65782518084602001fd5b8160405162461bcd60e51b81526004016105149190612aad565b9392505050565b82805461240390612ebf565b90600052602060002090601f016020900481019282612425576000855561246b565b82601f1061243e57805160ff191683800117855561246b565b8280016001018555821561246b579182015b8281111561246b578251825591602001919060010190612450565b5061247792915061247b565b5090565b5b80821115612477576000815560010161247c565b600067ffffffffffffffff8311156124aa576124aa612f93565b6124bd601f8401601f1916602001612df2565b90508281528383830111156124d157600080fd5b828260208301376000602084830101529392505050565b600082601f8301126124f957600080fd5b8135602061250e61250983612e23565b612df2565b80838252828201915082860187848660051b890101111561252e57600080fd5b60005b858110156125545761254282612561565b84529284019290840190600101612531565b5090979650505050505050565b80356005811061257057600080fd5b919050565b600082601f83011261258657600080fd5b6123f083833560208501612490565b803565ffffffffffff8116811461257057600080fd5b80356001600160601b038116811461257057600080fd5b6000602082840312156125d457600080fd5b81356123f081612fa9565b600080604083850312156125f257600080fd5b82356125fd81612fa9565b9150602083013567ffffffffffffffff81111561261957600080fd5b8301601f8101851361262a57600080fd5b61263985823560208401612490565b9150509250929050565b6000806000806080858703121561265957600080fd5b843561266481612fa9565b9350612672602086016125ab565b9250604085013567ffffffffffffffff81111561268e57600080fd5b61269a87828801612575565b9250506126a960608601612595565b905092959194509250565b6000806000606084860312156126c957600080fd5b833567ffffffffffffffff808211156126e157600080fd5b818601915086601f8301126126f557600080fd5b8135602061270561250983612e23565b8083825282820191508286018b848660051b890101111561272557600080fd5b600096505b8487101561274f5761273b816125ab565b83526001969096019591830191830161272a565b509750508701359250508082111561276657600080fd5b50612773868287016124e8565b925050612782604085016125ab565b90509250925092565b60006020828403121561279d57600080fd5b815180151581146123f057600080fd5b6000602082840312156127bf57600080fd5b5051919050565b6000602082840312156127d857600080fd5b6123f0826125ab565b6000806000606084860312156127f657600080fd5b6127ff846125ab565b9250602084013567ffffffffffffffff81111561281b57600080fd5b61282786828701612575565b92505061278260408501612595565b6000806040838503121561284957600080fd5b612852836125ab565b915061286060208401612595565b90509250929050565b60008060006060848603121561287e57600080fd5b612887846125ab565b925061289560208501612595565b9150604084013567ffffffffffffffff8111156128b157600080fd5b6128bd86828701612575565b9150509250925092565b600080600080608085870312156128dd57600080fd5b6128e6856125ab565b93506128f460208601612595565b9250612902604086016125ab565b9150606085013567ffffffffffffffff81111561291e57600080fd5b61292a87828801612575565b91505092959194509250565b6000806000806080858703121561294c57600080fd5b612955856125ab565b9350612963602086016125ab565b925061290260408601612561565b60008060006060848603121561298657600080fd5b61298f846125ab565b9250612895602085016125ab565b600581106129ad576129ad612f67565b9052565b600381106129ad576129ad612f67565b600081518084526129d9816020860160208601612e93565b601f01601f19169290920160200192915050565b600082516129ff818460208701612e93565b9190910192915050565b6001600160a01b0386811682528516602082015260a060408201819052600090612a35908301866129c1565b65ffffffffffff94909416606083015250608001529392505050565b6001600160a01b038616815260a060208201819052600090612a75908301876129c1565b9050612a84604083018661299d565b65ffffffffffff939093166060820152608001529392505050565b602081016123b182846129b1565b6020815260006123f060208301846129c1565b6020808252602f908201527f4d696c6573746f6e6553746174655570646174653a20496e76616c696420617060408201526e706c69636174696f6e20737461746560881b606082015260800190565b60208082526029908201527f4170706c69636174696f6e53746174655570646174653a20496e76616c696420604082015268776f726b737061636560b81b606082015260800190565b6020808252602c908201527f46756e6374696f6e206d7573742062652063616c6c6564207468726f7567682060408201526b19195b1959d85d1958d85b1b60a21b606082015260800190565b6020808252602c908201527f46756e6374696f6e206d7573742062652063616c6c6564207468726f7567682060408201526b6163746976652070726f787960a01b606082015260800190565b6020808252602a908201527f4d696c6573746f6e6553746174655570646174653a20496e76616c6964206d696040820152691b195cdd1bdb99481a5960b21b606082015260800190565b6020808252602b908201527f496e697469616c697a61626c653a20636f6e7472616374206973206e6f74206960408201526a6e697469616c697a696e6760a81b606082015260800190565b6020808252601a908201527f556e617574686f72697365643a204e6f7420616e2061646d696e000000000000604082015260600190565b6020808252602e908201527f4d696c6573746f6e6553746174655570646174653a20496e76616c696420737460408201526d30ba32903a3930b739b4ba34b7b760911b606082015260800190565b6001600160601b039290921682526001600160a01b0316602082015260400190565b6001600160601b038616815265ffffffffffff85166020820152612d5360408201856129b1565b60a060608201526000612d6960a08301856129c1565b90508260808301529695505050505050565b6001600160601b038981168252881660208201526001600160a01b0387811660408301528616606082015265ffffffffffff8581166080830152841660a082015261010060c08201819052600090612dd5838201866129c1565b915050612de560e083018461299d565b9998505050505050505050565b604051601f8201601f1916810167ffffffffffffffff81118282101715612e1b57612e1b612f93565b604052919050565b600067ffffffffffffffff821115612e3d57612e3d612f93565b5060051b60200190565b600065ffffffffffff808316818516808303821115612e6857612e68612f51565b01949350505050565b60006001600160601b03808316818516808303821115612e6857612e68612f51565b60005b83811015612eae578181015183820152602001612e96565b8381111561224b5750506000910152565b600181811c90821680612ed357607f821691505b60208210811415612ef457634e487b7160e01b600052602260045260246000fd5b50919050565b6000600019821415612f0e57612f0e612f51565b5060010190565b600065ffffffffffff80831681811415612f3157612f31612f51565b6001019392505050565b634e487b7160e01b600052600160045260246000fd5b634e487b7160e01b600052601160045260246000fd5b634e487b7160e01b600052602160045260246000fd5b634e487b7160e01b600052603260045260246000fd5b634e487b7160e01b600052604160045260246000fd5b6001600160a01b0381168114610a8e57600080fdfe360894a13ba1a3210667c828492db98dca3e2076cc3735a920a3ca505d382bbc416464726573733a206c6f772d6c6576656c2064656c65676174652063616c6c206661696c6564a164736f6c6343000807000a",
  "linkReferences": {},
  "deployedLinkReferences": {}
}