{
  "_format": "hh-sol-artifact-1",
  "contractName": "ApplicationReviewRegistry",
  "sourceName": "contracts/ApplicationReviewRegistry.sol",
  "abi": [
    {
      "anonymous": false,
      "inputs": [
        {
          "indexed": false,
          "internalType": "address",
          "name": "previousAdmin",
          "type": "address"
        },
        {
          "indexed": false,
          "internalType": "address",
          "name": "newAdmin",
          "type": "address"
        }
      ],
      "name": "AdminChanged",
      "type": "event"
    },
    {
      "anonymous": false,
      "inputs": [
        {
          "indexed": true,
          "internalType": "address",
          "name": "beacon",
          "type": "address"
        }
      ],
      "name": "BeaconUpgraded",
      "type": "event"
    },
    {
      "anonymous": false,
      "inputs": [
        {
          "indexed": false,
          "internalType": "uint8",
          "name": "version",
          "type": "uint8"
        }
      ],
      "name": "Initialized",
      "type": "event"
    },
    {
      "anonymous": false,
      "inputs": [
        {
          "indexed": true,
          "internalType": "address",
          "name": "previousOwner",
          "type": "address"
        },
        {
          "indexed": true,
          "internalType": "address",
          "name": "newOwner",
          "type": "address"
        }
      ],
      "name": "OwnershipTransferred",
      "type": "event"
    },
    {
      "anonymous": false,
      "inputs": [
        {
          "indexed": false,
          "internalType": "uint96[]",
          "name": "_reviewIds",
          "type": "uint96[]"
        },
        {
          "indexed": false,
          "internalType": "address",
          "name": "_asset",
          "type": "address"
        },
        {
          "indexed": false,
          "internalType": "address",
          "name": "_sender",
          "type": "address"
        },
        {
          "indexed": false,
          "internalType": "address",
          "name": "_reviewer",
          "type": "address"
        },
        {
          "indexed": false,
          "internalType": "uint256",
          "name": "_amount",
          "type": "uint256"
        },
        {
          "indexed": false,
          "internalType": "uint256",
          "name": "time",
          "type": "uint256"
        }
      ],
      "name": "ReviewPaymentFulfilled",
      "type": "event"
    },
    {
      "anonymous": false,
      "inputs": [
        {
          "indexed": false,
          "internalType": "uint96[]",
          "name": "_reviewIds",
          "type": "uint96[]"
        },
        {
          "indexed": false,
          "internalType": "address",
          "name": "_asset",
          "type": "address"
        },
        {
          "indexed": false,
          "internalType": "address",
          "name": "_reviewer",
          "type": "address"
        },
        {
          "indexed": false,
          "internalType": "uint256",
          "name": "_amount",
          "type": "uint256"
        },
        {
          "indexed": false,
          "internalType": "string",
          "name": "_transactionHash",
          "type": "string"
        },
        {
          "indexed": false,
          "internalType": "uint256",
          "name": "time",
          "type": "uint256"
        }
      ],
      "name": "ReviewPaymentMarkedDone",
      "type": "event"
    },
    {
      "anonymous": false,
      "inputs": [
        {
          "indexed": true,
          "internalType": "uint96",
          "name": "_reviewId",
          "type": "uint96"
        },
        {
          "indexed": false,
          "internalType": "uint96",
          "name": "_workspaceId",
          "type": "uint96"
        },
        {
          "indexed": false,
          "internalType": "uint96",
          "name": "_applicationId",
          "type": "uint96"
        },
        {
          "indexed": false,
          "internalType": "address",
          "name": "_grantAddress",
          "type": "address"
        },
        {
          "indexed": false,
          "internalType": "string",
          "name": "_metadataHash",
          "type": "string"
        },
        {
          "indexed": false,
          "internalType": "uint256",
          "name": "time",
          "type": "uint256"
        }
      ],
      "name": "ReviewSubmitted",
      "type": "event"
    },
    {
      "anonymous": false,
      "inputs": [
        {
          "indexed": true,
          "internalType": "uint96[]",
          "name": "_reviewIds",
          "type": "uint96[]"
        },
        {
          "indexed": false,
          "internalType": "uint96",
          "name": "_workspaceId",
          "type": "uint96"
        },
        {
          "indexed": false,
          "internalType": "uint96",
          "name": "_applicationId",
          "type": "uint96"
        },
        {
          "indexed": false,
          "internalType": "address",
          "name": "_grantAddress",
          "type": "address"
        },
        {
          "indexed": false,
          "internalType": "address[]",
          "name": "_reviewers",
          "type": "address[]"
        },
        {
          "indexed": false,
          "internalType": "bool[]",
          "name": "_active",
          "type": "bool[]"
        },
        {
          "indexed": false,
          "internalType": "uint256",
          "name": "time",
          "type": "uint256"
        }
      ],
      "name": "ReviewersAssigned",
      "type": "event"
    },
    {
      "anonymous": false,
      "inputs": [
        {
          "indexed": false,
          "internalType": "uint96",
          "name": "_workspaceId",
          "type": "uint96"
        },
        {
          "indexed": true,
          "internalType": "address",
          "name": "_grantAddress",
          "type": "address"
        },
        {
          "indexed": false,
          "internalType": "string",
          "name": "_metadataHash",
          "type": "string"
        },
        {
          "indexed": false,
          "internalType": "uint256",
          "name": "time",
          "type": "uint256"
        }
      ],
      "name": "RubricsSet",
      "type": "event"
    },
    {
      "anonymous": false,
      "inputs": [
        {
          "indexed": true,
          "internalType": "address",
          "name": "implementation",
          "type": "address"
        }
      ],
      "name": "Upgraded",
      "type": "event"
    },
    {
      "inputs": [],
      "name": "applicationReg",
      "outputs": [
        {
          "internalType": "contract IApplicationRegistry",
          "name": "",
          "type": "address"
        }
      ],
      "stateMutability": "view",
      "type": "function"
    },
    {
      "inputs": [
        {
          "internalType": "uint96",
          "name": "_workspaceId",
          "type": "uint96"
        },
        {
          "internalType": "uint96",
          "name": "_applicationId",
          "type": "uint96"
        },
        {
          "internalType": "address",
          "name": "_grantAddress",
          "type": "address"
        },
        {
          "internalType": "address[]",
          "name": "_reviewers",
          "type": "address[]"
        },
        {
          "internalType": "bool[]",
          "name": "_active",
          "type": "bool[]"
        }
      ],
      "name": "assignReviewers",
      "outputs": [],
      "stateMutability": "nonpayable",
      "type": "function"
    },
    {
      "inputs": [
        {
          "internalType": "uint96",
          "name": "_workspaceId",
          "type": "uint96"
        },
        {
          "internalType": "uint96",
          "name": "_applicationId",
          "type": "uint96"
        },
        {
          "internalType": "address",
          "name": "_grantAddress",
          "type": "address"
        }
      ],
      "name": "assignReviewersRoundRobin",
      "outputs": [],
      "stateMutability": "nonpayable",
      "type": "function"
    },
    {
      "inputs": [
        {
          "internalType": "uint96",
          "name": "_workspaceId",
          "type": "uint96"
        },
        {
          "internalType": "address",
          "name": "_grantAddress",
          "type": "address"
        },
        {
          "internalType": "address[]",
          "name": "_reviewers",
          "type": "address[]"
        },
        {
          "internalType": "bool[]",
          "name": "_active",
          "type": "bool[]"
        },
        {
          "internalType": "uint96",
          "name": "_numOfReviewersPerApplication",
          "type": "uint96"
        }
      ],
      "name": "enableAutoAssignmentOfReviewers",
      "outputs": [],
      "stateMutability": "nonpayable",
      "type": "function"
    },
    {
      "inputs": [
        {
          "internalType": "uint96",
          "name": "_workspaceId",
          "type": "uint96"
        },
        {
          "internalType": "uint96[]",
          "name": "_applicationIds",
          "type": "uint96[]"
        },
        {
          "internalType": "address",
          "name": "_reviewer",
          "type": "address"
        },
        {
          "internalType": "uint96[]",
          "name": "_reviewIds",
          "type": "uint96[]"
        },
        {
          "internalType": "contract IERC20",
          "name": "_erc20Interface",
          "type": "address"
        },
        {
          "internalType": "uint256",
          "name": "_amount",
          "type": "uint256"
        }
      ],
      "name": "fulfillPayment",
      "outputs": [],
      "stateMutability": "nonpayable",
      "type": "function"
    },
    {
      "inputs": [],
      "name": "grantFactory",
      "outputs": [
        {
          "internalType": "contract IGrantFactory",
          "name": "",
          "type": "address"
        }
      ],
      "stateMutability": "view",
      "type": "function"
    },
    {
      "inputs": [
        {
          "internalType": "address",
          "name": "",
          "type": "address"
        }
      ],
      "name": "grantReviewStates",
      "outputs": [
        {
          "internalType": "address",
          "name": "grant",
          "type": "address"
        },
        {
          "internalType": "uint96",
          "name": "workspaceId",
          "type": "uint96"
        },
        {
          "internalType": "uint96",
          "name": "numOfReviews",
          "type": "uint96"
        },
        {
          "internalType": "string",
          "name": "rubricsMetadataHash",
          "type": "string"
        },
        {
          "internalType": "uint96",
          "name": "numOfReviewersPerApplication",
          "type": "uint96"
        }
      ],
      "stateMutability": "view",
      "type": "function"
    },
    {
      "inputs": [
        {
          "internalType": "address",
          "name": "_grantAddress",
          "type": "address"
        }
      ],
      "name": "hasAutoAssigningEnabled",
      "outputs": [
        {
          "internalType": "bool",
          "name": "",
          "type": "bool"
        }
      ],
      "stateMutability": "view",
      "type": "function"
    },
    {
      "inputs": [],
      "name": "initialize",
      "outputs": [],
      "stateMutability": "nonpayable",
      "type": "function"
    },
    {
      "inputs": [
        {
          "internalType": "address",
          "name": "",
          "type": "address"
        }
      ],
      "name": "isAutoAssigningEnabled",
      "outputs": [
        {
          "internalType": "bool",
          "name": "",
          "type": "bool"
        }
      ],
      "stateMutability": "view",
      "type": "function"
    },
    {
      "inputs": [
        {
          "internalType": "uint96",
          "name": "_workspaceId",
          "type": "uint96"
        },
        {
          "internalType": "uint96[]",
          "name": "_applicationIds",
          "type": "uint96[]"
        },
        {
          "internalType": "address",
          "name": "_reviewer",
          "type": "address"
        },
        {
          "internalType": "uint96[]",
          "name": "_reviewIds",
          "type": "uint96[]"
        },
        {
          "internalType": "contract IERC20",
          "name": "_erc20Interface",
          "type": "address"
        },
        {
          "internalType": "uint256",
          "name": "_amount",
          "type": "uint256"
        },
        {
          "internalType": "string",
          "name": "_transactionHash",
          "type": "string"
        }
      ],
      "name": "markPaymentDone",
      "outputs": [],
      "stateMutability": "nonpayable",
      "type": "function"
    },
    {
      "inputs": [],
      "name": "owner",
      "outputs": [
        {
          "internalType": "address",
          "name": "",
          "type": "address"
        }
      ],
      "stateMutability": "view",
      "type": "function"
    },
    {
      "inputs": [],
      "name": "proxiableUUID",
      "outputs": [
        {
          "internalType": "bytes32",
          "name": "",
          "type": "bytes32"
        }
      ],
      "stateMutability": "view",
      "type": "function"
    },
    {
      "inputs": [],
      "name": "renounceOwnership",
      "outputs": [],
      "stateMutability": "nonpayable",
      "type": "function"
    },
    {
      "inputs": [],
      "name": "reviewCount",
      "outputs": [
        {
          "internalType": "uint96",
          "name": "",
          "type": "uint96"
        }
      ],
      "stateMutability": "view",
      "type": "function"
    },
    {
      "inputs": [
        {
          "internalType": "uint96",
          "name": "",
          "type": "uint96"
        }
      ],
      "name": "reviewPaymentsStatus",
      "outputs": [
        {
          "internalType": "bool",
          "name": "",
          "type": "bool"
        }
      ],
      "stateMutability": "view",
      "type": "function"
    },
    {
      "inputs": [
        {
          "internalType": "address",
          "name": "",
          "type": "address"
        },
        {
          "internalType": "address",
          "name": "",
          "type": "address"
        }
      ],
      "name": "reviewerAssignmentCounts",
      "outputs": [
        {
          "internalType": "uint96",
          "name": "",
          "type": "uint96"
        }
      ],
      "stateMutability": "view",
      "type": "function"
    },
    {
      "inputs": [
        {
          "internalType": "address",
          "name": "",
          "type": "address"
        },
        {
          "internalType": "uint256",
          "name": "",
          "type": "uint256"
        }
      ],
      "name": "reviewers",
      "outputs": [
        {
          "internalType": "address",
          "name": "",
          "type": "address"
        }
      ],
      "stateMutability": "view",
      "type": "function"
    },
    {
      "inputs": [
        {
          "internalType": "address",
          "name": "",
          "type": "address"
        },
        {
          "internalType": "uint96",
          "name": "",
          "type": "uint96"
        }
      ],
      "name": "reviews",
      "outputs": [
        {
          "internalType": "uint96",
          "name": "id",
          "type": "uint96"
        },
        {
          "internalType": "uint96",
          "name": "workspaceId",
          "type": "uint96"
        },
        {
          "internalType": "uint96",
          "name": "applicationId",
          "type": "uint96"
        },
        {
          "internalType": "address",
          "name": "grant",
          "type": "address"
        },
        {
          "internalType": "address",
          "name": "reviewer",
          "type": "address"
        },
        {
          "internalType": "string",
          "name": "metadataHash",
          "type": "string"
        },
        {
          "internalType": "bool",
          "name": "active",
          "type": "bool"
        }
      ],
      "stateMutability": "view",
      "type": "function"
    },
    {
      "inputs": [
        {
          "internalType": "contract IApplicationRegistry",
          "name": "_applicationReg",
          "type": "address"
        }
      ],
      "name": "setApplicationReg",
      "outputs": [],
      "stateMutability": "nonpayable",
      "type": "function"
    },
    {
      "inputs": [
        {
          "internalType": "contract IGrantFactory",
          "name": "_grantFactory",
          "type": "address"
        }
      ],
      "name": "setGrantFactory",
      "outputs": [],
      "stateMutability": "nonpayable",
      "type": "function"
    },
    {
      "inputs": [
        {
          "internalType": "uint96",
          "name": "_workspaceId",
          "type": "uint96"
        },
        {
          "internalType": "address",
          "name": "_grantAddress",
          "type": "address"
        },
        {
          "internalType": "string",
          "name": "_metadataHash",
          "type": "string"
        }
      ],
      "name": "setRubrics",
      "outputs": [],
      "stateMutability": "nonpayable",
      "type": "function"
    },
    {
      "inputs": [
        {
          "internalType": "contract IWorkspaceRegistry",
          "name": "_workspaceReg",
          "type": "address"
        }
      ],
      "name": "setWorkspaceReg",
      "outputs": [],
      "stateMutability": "nonpayable",
      "type": "function"
    },
    {
      "inputs": [
        {
          "internalType": "uint96",
          "name": "_workspaceId",
          "type": "uint96"
        },
        {
          "internalType": "uint96",
          "name": "_applicationId",
          "type": "uint96"
        },
        {
          "internalType": "address",
          "name": "_grantAddress",
          "type": "address"
        },
        {
          "internalType": "string",
          "name": "_metadataHash",
          "type": "string"
        }
      ],
      "name": "submitReview",
      "outputs": [],
      "stateMutability": "nonpayable",
      "type": "function"
    },
    {
      "inputs": [
        {
          "internalType": "address",
          "name": "newOwner",
          "type": "address"
        }
      ],
      "name": "transferOwnership",
      "outputs": [],
      "stateMutability": "nonpayable",
      "type": "function"
    },
    {
      "inputs": [
        {
          "internalType": "address",
          "name": "newImplementation",
          "type": "address"
        }
      ],
      "name": "upgradeTo",
      "outputs": [],
      "stateMutability": "nonpayable",
      "type": "function"
    },
    {
      "inputs": [
        {
          "internalType": "address",
          "name": "newImplementation",
          "type": "address"
        },
        {
          "internalType": "bytes",
          "name": "data",
          "type": "bytes"
        }
      ],
      "name": "upgradeToAndCall",
      "outputs": [],
      "stateMutability": "payable",
      "type": "function"
    },
    {
      "inputs": [],
      "name": "workspaceReg",
      "outputs": [
        {
          "internalType": "contract IWorkspaceRegistry",
          "name": "",
          "type": "address"
        }
      ],
      "stateMutability": "view",
      "type": "function"
    }
  ],
  "bytecode": "0x60a06040523060601b60805234801561001757600080fd5b5060805160601c613f1a6100526000396000818161110d0152818161114d01528181611844015281816118840152611c8b0152613f1a6000f3fe6080604052600436106101b75760003560e01c80635e9e4b20116100ec57806390c98dc91161008a578063e4f5c72c11610064578063e4f5c72c14610563578063eff5924f14610583578063f2fde38b146105aa578063fcdd9280146105ca57600080fd5b806390c98dc9146104f2578063afa30f0214610512578063c0548d251461053257600080fd5b80638129fc1c116100c65780638129fc1c1461047f5780638c1dceac146104945780638cbdfae8146104b45780638da5cb5b146104d457600080fd5b80635e9e4b201461041a578063679859411461044a578063715018a61461046a57600080fd5b80633659cfe6116101595780634fc4b8e4116101335780634fc4b8e4146103465780635146ce961461039f57806352086072146103bf57806352d1902d146103f757600080fd5b80633659cfe6146102f35780633e080571146103135780634f1ef2861461033357600080fd5b80631f7568de116101955780631f7568de1461021e57806331414bc11461023e57806332af4f011461027a57806335d8e79c146102ba57600080fd5b8063013a9d81146101bc578063187389c1146101de57806319cd9a16146101fe575b600080fd5b3480156101c857600080fd5b506101dc6101d7366004613740565b6105ea565b005b3480156101ea57600080fd5b506101dc6101f9366004613304565b610de4565b34801561020a57600080fd5b506101dc610219366004613304565b610e0e565b34801561022a57600080fd5b506101dc610239366004613585565b610e38565b34801561024a57600080fd5b5061025e6102593660046133e9565b611012565b6040516102719796959493929190613c96565b60405180910390f35b34801561028657600080fd5b506102aa610295366004613304565b60cf6020526000908152604090205460ff1681565b6040519015158152602001610271565b3480156102c657600080fd5b506102aa6102d5366004613304565b6001600160a01b0316600090815260cf602052604090205460ff1690565b3480156102ff57600080fd5b506101dc61030e366004613304565b611102565b34801561031f57600080fd5b506101dc61032e3660046136f5565b6111e2565b6101dc61034136600461335a565b611839565b34801561035257600080fd5b50610387610361366004613321565b60d06020908152600092835260408084209091529082529020546001600160601b031681565b6040516001600160601b039091168152602001610271565b3480156103ab57600080fd5b506101dc6103ba36600461362c565b61190a565b3480156103cb57600080fd5b5060ca546103df906001600160a01b031681565b6040516001600160a01b039091168152602001610271565b34801561040357600080fd5b5061040c611c7e565b604051908152602001610271565b34801561042657600080fd5b506102aa61043536600461344d565b60ce6020526000908152604090205460ff1681565b34801561045657600080fd5b506103df6104653660046133bd565b611d31565b34801561047657600080fd5b506101dc611d69565b34801561048b57600080fd5b506101dc611d7d565b3480156104a057600080fd5b506101dc6104af366004613304565b611e8d565b3480156104c057600080fd5b506101dc6104cf366004613524565b611eb7565b3480156104e057600080fd5b506097546001600160a01b03166103df565b3480156104fe57600080fd5b506101dc61050d3660046137db565b612171565b34801561051e57600080fd5b5060cb546103df906001600160a01b031681565b34801561053e57600080fd5b5061055261054d366004613304565b61248a565b60405161027195949392919061394c565b34801561056f57600080fd5b506101dc61057e366004613487565b612564565b34801561058f57600080fd5b5060cb5461038790600160a01b90046001600160601b031681565b3480156105b657600080fd5b506101dc6105c5366004613304565b612aff565b3480156105d657600080fd5b5060c9546103df906001600160a01b031681565b60cb5460405163689b748f60e01b81526001600160601b0386811660048301528716916001600160a01b03169063689b748f9060240160206040518083038186803b15801561063857600080fd5b505afa15801561064c573d6000803e3d6000fd5b505050506040513d601f19601f82011682018060405250810190610670919061346a565b6001600160601b0316146106cb5760405162461bcd60e51b815260206004820152601c60248201527f41737369676e52657669657765723a20556e617574686f72697a65640000000060448201526064015b60405180910390fd5b805182511461072f5760405162461bcd60e51b815260206004820152602a60248201527f41737369676e52657669657765723a20506172616d6574657273206c656e67746044820152690d040dad2e6dac2e8c6d60b31b60648201526084016106c2565b600082516001600160401b0381111561074a5761074a613e78565b604051908082528060200260200182016040528015610773578160200160208202803683370190505b50905060005b8351811015610d845760006001600160a01b031684828151811061079f5761079f613e62565b60200260200101516001600160a01b0316141561080f5760405162461bcd60e51b815260206004820152602860248201527f41737369676e52657669657765723a205265766965776572206973207a65726f604482015267206164647265737360c01b60648201526084016106c2565b600060cc600086848151811061082757610827613e62565b6020908102919091018101516001600160a01b03908116835282820193909352604091820160009081206001600160601b03808d16835290835290839020835160e08101855281548084168252600160601b90819004841694820194909452600182015492831694810194909452919004831660608301526002810154909216608082015260038201805491929160a0840191906108c490613db9565b80601f01602080910402602001604051908101604052809291908181526020018280546108f090613db9565b801561093d5780601f106109125761010080835404028352916020019161093d565b820191906000526020600020905b81548152906001019060200180831161092057829003601f168201915b50505091835250506004919091015460ff16151560209091015260a08101515190915015158015610985575083828151811061097b5761097b613e62565b6020026020010151155b156109e35760405162461bcd60e51b815260206004820152602860248201527f41737369676e52657669657765723a2052657669657720616c726561647920736044820152671d589b5a5d1d195960c21b60648201526084016106c2565b60808101516000906001600160a01b0316610a7c575060cb54600160a01b90046001600160601b031680610a18816001613d62565b6001600160601b031611610a2e57610a2e613e36565b600160cb60148282829054906101000a90046001600160601b0316610a539190613d62565b92506101000a8154816001600160601b0302191690836001600160601b03160217905550610a80565b5080515b80848481518110610a9357610a93613e62565b60200260200101906001600160601b031690816001600160601b0316815250506040518060e00160405280826001600160601b031681526020018a6001600160601b03168152602001896001600160601b03168152602001886001600160a01b03168152602001878581518110610b0c57610b0c613e62565b60200260200101516001600160a01b03168152602001604051806020016040528060008152508152602001868581518110610b4957610b49613e62565b6020026020010151151581525060cc6000888681518110610b6c57610b6c613e62565b6020908102919091018101516001600160a01b03908116835282820193909352604091820160009081206001600160601b038e811683529083529083902085518154878501519184166001600160c01b031990911617600160601b9184168202178255938601516060870151921691851690930217600183015560808401516002830180546001600160a01b031916919094161790925560a083015180519192610c1e92600385019290910190613042565b5060c091909101516004909101805460ff19169115159190911790558451859084908110610c4e57610c4e613e62565b602002602001015115610d6f576001600160a01b038716600090815260d06020526040812087518290899087908110610c8957610c89613e62565b6020908102919091018101516001600160a01b03168252810191909152604001600020546001600160601b0316905080610cc4816001613d62565b6001600160601b031611610cda57610cda613e36565b610ce5600182613d62565b90508060d060008a6001600160a01b03166001600160a01b031681526020019081526020016000206000898781518110610d2157610d21613e62565b60200260200101516001600160a01b03166001600160a01b0316815260200190815260200160002060006101000a8154816001600160601b0302191690836001600160601b03160217905550505b50508080610d7c90613df4565b915050610779565b5080604051610d9391906138f1565b60405180910390207f08bd1afae11010adf5289bd6b1f817a9799e16dcc7c5ed5ee3be6323a5d102e4878787878742604051610dd496959493929190613bb8565b60405180910390a2505050505050565b610dec612b75565b60ca80546001600160a01b0319166001600160a01b0392909216919091179055565b610e16612b75565b60cb80546001600160a01b0319166001600160a01b0392909216919091179055565b60c954604051633183c01760e21b815287916001600160a01b03169063c60f005c90610e6a9084903390600401613b64565b60206040518083038186803b158015610e8257600080fd5b505afa158015610e96573d6000803e3d6000fd5b505050506040513d601f19601f82011682018060405250810190610eba9190613417565b610ed65760405162461bcd60e51b81526004016106c290613b2d565b610ef48787878787876040518060200160405280600081525061190a565b6040516323b872dd60e01b81523360048201526001600160a01b038681166024830152604482018490528416906323b872dd90606401602060405180830381600087803b158015610f4457600080fd5b505af1158015610f58573d6000803e3d6000fd5b505050506040513d601f19601f82011682018060405250810190610f7c9190613417565b610fc85760405162461bcd60e51b815260206004820152601860248201527f4661696c656420746f207472616e736665722066756e6473000000000000000060448201526064016106c2565b7f43436da9a602d5f296bd2501bf28626a3cd8adad8766a26b0502f7d6a09c6ee58484338886426040516110019695949392919061399a565b60405180910390a150505050505050565b60cc60209081526000928352604080842090915290825290208054600182015460028301546003840180546001600160601b0380861696600160601b96879004821696918616956001600160a01b0392900482169490911692909161107690613db9565b80601f01602080910402602001604051908101604052809291908181526020018280546110a290613db9565b80156110ef5780601f106110c4576101008083540402835291602001916110ef565b820191906000526020600020905b8154815290600101906020018083116110d257829003601f168201915b5050506004909301549192505060ff1687565b306001600160a01b037f000000000000000000000000000000000000000000000000000000000000000016141561114b5760405162461bcd60e51b81526004016106c290613a4a565b7f00000000000000000000000000000000000000000000000000000000000000006001600160a01b0316611194600080516020613ec7833981519152546001600160a01b031690565b6001600160a01b0316146111ba5760405162461bcd60e51b81526004016106c290613a96565b6111c381612bcf565b604080516000808252602082019092526111df91839190612bd7565b50565b60cb5460405163689b748f60e01b81526001600160601b0384811660048301528516916001600160a01b03169063689b748f9060240160206040518083038186803b15801561123057600080fd5b505afa158015611244573d6000803e3d6000fd5b505050506040513d601f19601f82011682018060405250810190611268919061346a565b6001600160601b0316146112cc5760405162461bcd60e51b815260206004820152602560248201527f41737369676e52657669657765727320284261746368293a20556e617574686f6044820152641c9a5e995960da1b60648201526084016106c2565b6001600160a01b0381166113415760405162461bcd60e51b815260206004820152603660248201527f41737369676e52657669657765727320284261746368293a204772616e742061604482015275646472657373206973207a65726f206164647265737360501b60648201526084016106c2565b6001600160a01b038116600090815260cd6020908152604080832060d1835281842080548351818602810186019094528084529194939091908301828280156113b357602002820191906000526020600020905b81546001600160a01b03168152600190910190602001808311611395575b505050506003840154919250506001600160601b03168061142f5760405162461bcd60e51b815260206004820152603060248201527f41737369676e52657669657765727320284261746368293a2043616e6e6f742060448201526f61737369676e2072657669657765727360801b60648201526084016106c2565b60008251116114975760405162461bcd60e51b815260206004820152602e60248201527f41737369676e52657669657765727320284261746368293a204e6f207265766960448201526d195dd95c9cc8185cdcda59db995960921b60648201526084016106c2565b600082516001600160401b038111156114b2576114b2613e78565b6040519080825280602002602001820160405280156114f757816020015b60408051808201909152600080825260208201528152602001906001900390816114d05790505b50905060005b83518110156115d357604051806040016040528085838151811061152357611523613e62565b60200260200101516001600160a01b0316815260200160d06000896001600160a01b03166001600160a01b03168152602001908152602001600020600087858151811061157257611572613e62565b6020908102919091018101516001600160a01b03168252810191909152604001600020546001600160601b0316905282518390839081106115b5576115b5613e62565b602002602001018190525080806115cb90613df4565b9150506114fd565b5060005b81518110156116e75760006115ed826001613d4a565b90505b82518110156116d45782818151811061160b5761160b613e62565b6020026020010151602001516001600160601b031683838151811061163257611632613e62565b6020026020010151602001516001600160601b031611156116c257600083838151811061166157611661613e62565b6020026020010151905083828151811061167d5761167d613e62565b602002602001015184848151811061169757611697613e62565b6020026020010181905250808483815181106116b5576116b5613e62565b6020026020010181905250505b806116cc81613df4565b9150506115f0565b50806116df81613df4565b9150506115d7565b506000826001600160601b03166001600160401b0381111561170b5761170b613e78565b604051908082528060200260200182016040528015611734578160200160208202803683370190505b5090506000836001600160601b03166001600160401b0381111561175a5761175a613e78565b604051908082528060200260200182016040528015611783578160200160208202803683370190505b50905060005b846001600160601b0316811015611820578381815181106117ac576117ac613e62565b6020026020010151600001518382815181106117ca576117ca613e62565b60200260200101906001600160a01b031690816001600160a01b03168152505060018282815181106117fe576117fe613e62565b911515602092830291909101909101528061181881613df4565b915050611789565b5061182e89898985856105ea565b505050505050505050565b306001600160a01b037f00000000000000000000000000000000000000000000000000000000000000001614156118825760405162461bcd60e51b81526004016106c290613a4a565b7f00000000000000000000000000000000000000000000000000000000000000006001600160a01b03166118cb600080516020613ec7833981519152546001600160a01b031690565b6001600160a01b0316146118f15760405162461bcd60e51b81526004016106c290613a96565b6118fa82612bcf565b61190682826001612bd7565b5050565b60c954604051633183c01760e21b815288916001600160a01b03169063c60f005c9061193c9084903390600401613b64565b60206040518083038186803b15801561195457600080fd5b505afa158015611968573d6000803e3d6000fd5b505050506040513d601f19601f8201168201806040525081019061198c9190613417565b6119a85760405162461bcd60e51b81526004016106c290613b2d565b8651855114611a115760405162461bcd60e51b815260206004820152602f60248201527f4368616e67655061796d656e745374617475733a20506172616d65746572732060448201526e0d8cadccee8d040dad2e6dac2e8c6d608b1b60648201526084016106c2565b60005b8551811015611c32576001600160a01b038716600090815260cc60205260408120895182908b9085908110611a4b57611a4b613e62565b6020908102919091018101516001600160601b039081168352828201939093526040918201600020825160e08101845281548086168252600160601b9081900486169382019390935260018201549485169381019390935292046001600160a01b039081166060830152600283015416608082015260038201805491929160a084019190611ad890613db9565b80601f0160208091040260200160405190810160405280929190818152602001828054611b0490613db9565b8015611b515780601f10611b2657610100808354040283529160200191611b51565b820191906000526020600020905b815481529060010190602001808311611b3457829003601f168201915b50505091835250506004919091015460ff1615156020918201528101519091506001600160601b038b8116911614611bd55760405162461bcd60e51b815260206004820152602160248201527f4368616e67655061796d656e745374617475733a20556e617574686f726973656044820152601960fa1b60648201526084016106c2565b600160ce6000898581518110611bed57611bed613e62565b6020908102919091018101516001600160601b03168252810191909152604001600020805460ff19169115159190911790555080611c2a81613df4565b915050611a14565b507f0721bd3fcfe77a3fb501b01088aa0addceb53dba5356b26b3ebaa5fea4459a02858588868642604051611c6c969594939291906139e0565b60405180910390a15050505050505050565b6000306001600160a01b037f00000000000000000000000000000000000000000000000000000000000000001614611d1e5760405162461bcd60e51b815260206004820152603860248201527f555550535570677261646561626c653a206d757374206e6f742062652063616c60448201527f6c6564207468726f7567682064656c656761746563616c6c000000000000000060648201526084016106c2565b50600080516020613ec783398151915290565b60d16020528160005260406000208181548110611d4d57600080fd5b6000918252602090912001546001600160a01b03169150829050565b611d71612b75565b611d7b6000612d56565b565b600054610100900460ff1615808015611d9d5750600054600160ff909116105b80611db75750303b158015611db7575060005460ff166001145b611e1a5760405162461bcd60e51b815260206004820152602e60248201527f496e697469616c697a61626c653a20636f6e747261637420697320616c72656160448201526d191e481a5b9a5d1a585b1a5e995960921b60648201526084016106c2565b6000805460ff191660011790558015611e3d576000805461ff0019166101001790555b611e45612da8565b80156111df576000805461ff0019169055604051600181527f7f26b83ff96e1f2b6a682f133852f6798a09c465da95921460cefb38474024989060200160405180910390a150565b611e95612b75565b60c980546001600160a01b0319166001600160a01b0392909216919091179055565b60c954604051633183c01760e21b815284916001600160a01b03169063c60f005c90611ee99084903390600401613b64565b60206040518083038186803b158015611f0157600080fd5b505afa158015611f15573d6000803e3d6000fd5b505050506040513d601f19601f82011682018060405250810190611f399190613417565b80611f4e575060ca546001600160a01b031633145b611fae5760405162461bcd60e51b815260206004820152602b60248201527f556e617574686f72697365643a204e6f7420616e2061646d696e206e6f72206760448201526a72616e74466163746f727960a81b60648201526084016106c2565b6001600160a01b038316600081815260cd602090815260409182902082516369b3ec4f60e11b8152925190936001600160601b03891693909263d367d89e92600480840193829003018186803b15801561200757600080fd5b505afa15801561201b573d6000803e3d6000fd5b505050506040513d601f19601f8201168201806040525081019061203f919061346a565b6001600160601b0316146120955760405162461bcd60e51b815260206004820152601860248201527f527562726963735365743a20556e617574686f7269736564000000000000000060448201526064016106c2565b60018101546001600160601b0316156120f05760405162461bcd60e51b815260206004820152601c60248201527f527562726963735365743a2052657669657773206e6f6e2d7a65726f0000000060448201526064016106c2565b82516121059060028301906020860190613042565b506001600160a01b0384166001600160601b038616600160a01b026001600160a01b031916811782556040517ff46c316a538db09aebf0e9687856ef9d5a62ee1bd8e78965d5291a3400dcb2719061216290889087904290613b86565b60405180910390a25050505050565b60c9546040516311d0697d60e11b815285916001600160a01b0316906323a0d2fa906121a39084903390600401613b64565b60206040518083038186803b1580156121bb57600080fd5b505afa1580156121cf573d6000803e3d6000fd5b505050506040513d601f19601f820116820180604052508101906121f39190613417565b6122555760405162461bcd60e51b815260206004820152602d60248201527f556e617574686f72697365643a204e65697468657220616e2061646d696e206e60448201526c37b91030903932bb34b2bbb2b960991b60648201526084016106c2565b33600090815260cc602090815260408083206001600160601b0380891685529083528184206001600160a01b038816855260cd9093529220815491929091600160601b90048116908816146122ec5760405162461bcd60e51b815260206004820152601a60248201527f5265766965775375626d69743a20556e617574686f726973656400000000000060448201526064016106c2565b600482015460ff166123405760405162461bcd60e51b815260206004820152601c60248201527f5265766965775375626d69743a205265766f6b6564206163636573730000000060448201526064016106c2565b6123d682600301805461235290613db9565b80601f016020809104026020016040519081016040528092919081815260200182805461237e90613db9565b80156123cb5780601f106123a0576101008083540402835291602001916123cb565b820191906000526020600020905b8154815290600101906020018083116123ae57829003601f168201915b505050505051151590565b61241d57600181810180546000906123f89084906001600160601b0316613d62565b92506101000a8154816001600160601b0302191690836001600160601b031602179055505b83516124329060038401906020870190613042565b5081546040516001600160601b03909116907f39e5d9d1e38ca9dd64fe07846fba51caba48ab399ab6b0b1b6f49d46696a0e8290612479908a908a908a908a904290613c49565b60405180910390a250505050505050565b60cd602052600090815260409020805460018201546002830180546001600160a01b03841694600160a01b9094046001600160601b039081169493169291906124d290613db9565b80601f01602080910402602001604051908101604052809291908181526020018280546124fe90613db9565b801561254b5780601f106125205761010080835404028352916020019161254b565b820191906000526020600020905b81548152906001019060200180831161252e57829003601f168201915b505050600390930154919250506001600160601b031685565b60c954604051633183c01760e21b815286916001600160a01b03169063c60f005c906125969084903390600401613b64565b60206040518083038186803b1580156125ae57600080fd5b505afa1580156125c2573d6000803e3d6000fd5b505050506040513d601f19601f820116820180604052508101906125e69190613417565b6126025760405162461bcd60e51b81526004016106c290613b2d565b6000826001600160601b0316116126815760405162461bcd60e51b815260206004820152603f60248201527f4175746f41737369676e5265766965776572733a20526576696577657273207060448201527f6572206170706c69636174696f6e206d75737420626520706f7369746976650060648201526084016106c2565b6000859050866001600160601b0316816001600160a01b031663d367d89e6040518163ffffffff1660e01b815260040160206040518083038186803b1580156126c957600080fd5b505afa1580156126dd573d6000803e3d6000fd5b505050506040513d601f19601f82011682018060405250810190612701919061346a565b6001600160601b0316146127615760405162461bcd60e51b815260206004820152602160248201527f4175746f41737369676e5265766965776572733a20556e617574686f726973656044820152601960fa1b60648201526084016106c2565b6001600160a01b038616600090815260cf602052604090205460ff16156127e75760405162461bcd60e51b815260206004820152603460248201527f4175746f41737369676e5265766965776572733a204175746f2061737369676e6044820152731b595b9d08185b1c9958591e48195b98589b195960621b60648201526084016106c2565b6001600160a01b038616600090815260cf60205260408120805460ff19166001179055805b855181101561287f5785818151811061282757612827613e62565b60200260200101511561286d576001600160601b038216612849836001613d62565b6001600160601b03161161285f5761285f613e36565b61286a600183613d62565b91505b8061287781613df4565b91505061280c565b50836001600160601b0316816001600160601b031610156128fd5760405162461bcd60e51b815260206004820152603260248201527f4175746f41737369676e5265766965776572733a204e6f7420656e6f756768206044820152711c995d9a595dd95c9cc81cd95b1958dd195960721b60648201526084016106c2565b6001600160a01b038716600090815260cd602052604081206003810180546bffffffffffffffffffffffff19166001600160601b038881169190911790915590919083166001600160401b0381111561295857612958613e78565b604051908082528060200260200182016040528015612981578160200160208202803683370190505b5090506000805b846001600160601b0316811015612a1c578881815181106129ab576129ab613e62565b602002602001015115612a0a578981815181106129ca576129ca613e62565b60200260200101518383815181106129e4576129e4613e62565b6001600160a01b0390921660209283029190910190910152612a07600183613d4a565b91505b80612a1481613df4565b915050612988565b506001600160a01b038a16600090815260d1602090815260409091208351612a46928501906130c6565b5060005b856001600160a01b03166324de8f136040518163ffffffff1660e01b815260040160206040518083038186803b158015612a8357600080fd5b505afa158015612a97573d6000803e3d6000fd5b505050506040513d601f19601f82011682018060405250810190612abb919061346a565b6001600160601b0316816001600160601b03161015612af157612adf8c828d6111e2565b80612ae981613e0f565b915050612a4a565b505050505050505050505050565b612b07612b75565b6001600160a01b038116612b6c5760405162461bcd60e51b815260206004820152602660248201527f4f776e61626c653a206e6577206f776e657220697320746865207a65726f206160448201526564647265737360d01b60648201526084016106c2565b6111df81612d56565b6097546001600160a01b03163314611d7b5760405162461bcd60e51b815260206004820181905260248201527f4f776e61626c653a2063616c6c6572206973206e6f7420746865206f776e657260448201526064016106c2565b6111df612b75565b7f4910fdfa16fed3260ed0e7147f7cc6da11a60208b5b9406d12a635614ffd91435460ff1615612c0f57612c0a83612dd7565b505050565b826001600160a01b03166352d1902d6040518163ffffffff1660e01b815260040160206040518083038186803b158015612c4857600080fd5b505afa925050508015612c78575060408051601f3d908101601f19168201909252612c7591810190613434565b60015b612cdb5760405162461bcd60e51b815260206004820152602e60248201527f45524331393637557067726164653a206e657720696d706c656d656e7461746960448201526d6f6e206973206e6f74205555505360901b60648201526084016106c2565b600080516020613ec78339815191528114612d4a5760405162461bcd60e51b815260206004820152602960248201527f45524331393637557067726164653a20756e737570706f727465642070726f786044820152681a58589b195555525160ba1b60648201526084016106c2565b50612c0a838383612e73565b609780546001600160a01b038381166001600160a01b0319831681179093556040519116919082907f8be0079c531659141344cd1fd0a4f28419497f9722a3daafe3b4186f6b6457e090600090a35050565b600054610100900460ff16612dcf5760405162461bcd60e51b81526004016106c290613ae2565b611d7b612e9e565b6001600160a01b0381163b612e445760405162461bcd60e51b815260206004820152602d60248201527f455243313936373a206e657720696d706c656d656e746174696f6e206973206e60448201526c1bdd08184818dbdb9d1c9858dd609a1b60648201526084016106c2565b600080516020613ec783398151915280546001600160a01b0319166001600160a01b0392909216919091179055565b612e7c83612ece565b600082511180612e895750805b15612c0a57612e988383612f0e565b50505050565b600054610100900460ff16612ec55760405162461bcd60e51b81526004016106c290613ae2565b611d7b33612d56565b612ed781612dd7565b6040516001600160a01b038216907fbc7cd75a20ee27fd9adebab32041f755214dbc6bffa90cc0225b39da2e5c2d3b90600090a250565b60606001600160a01b0383163b612f765760405162461bcd60e51b815260206004820152602660248201527f416464726573733a2064656c65676174652063616c6c20746f206e6f6e2d636f6044820152651b9d1c9858dd60d21b60648201526084016106c2565b600080846001600160a01b031684604051612f919190613930565b600060405180830381855af49150503d8060008114612fcc576040519150601f19603f3d011682016040523d82523d6000602084013e612fd1565b606091505b5091509150612ff98282604051806060016040528060278152602001613ee760279139613002565b95945050505050565b6060831561301157508161303b565b8251156130215782518084602001fd5b8160405162461bcd60e51b81526004016106c29190613a37565b9392505050565b82805461304e90613db9565b90600052602060002090601f01602090048101928261307057600085556130b6565b82601f1061308957805160ff19168380011785556130b6565b828001600101855582156130b6579182015b828111156130b657825182559160200191906001019061309b565b506130c292915061311b565b5090565b8280548282559060005260206000209081019282156130b6579160200282015b828111156130b657825182546001600160a01b0319166001600160a01b039091161782556020909201916001909101906130e6565b5b808211156130c2576000815560010161311c565b60006001600160401b0383111561314957613149613e78565b61315c601f8401601f1916602001613cf7565b905082815283838301111561317057600080fd5b828260208301376000602084830101529392505050565b803561319281613e8e565b919050565b600082601f8301126131a857600080fd5b813560206131bd6131b883613d27565b613cf7565b80838252828201915082860187848660051b89010111156131dd57600080fd5b60005b858110156132055781356131f381613e8e565b845292840192908401906001016131e0565b5090979650505050505050565b600082601f83011261322357600080fd5b813560206132336131b883613d27565b80838252828201915082860187848660051b890101111561325357600080fd5b60005b8581101561320557813561326981613ea3565b84529284019290840190600101613256565b600082601f83011261328c57600080fd5b8135602061329c6131b883613d27565b80838252828201915082860187848660051b89010111156132bc57600080fd5b60005b858110156132055781356132d281613eb1565b845292840192908401906001016132bf565b600082601f8301126132f557600080fd5b61303b83833560208501613130565b60006020828403121561331657600080fd5b813561303b81613e8e565b6000806040838503121561333457600080fd5b823561333f81613e8e565b9150602083013561334f81613e8e565b809150509250929050565b6000806040838503121561336d57600080fd5b823561337881613e8e565b915060208301356001600160401b0381111561339357600080fd5b8301601f810185136133a457600080fd5b6133b385823560208401613130565b9150509250929050565b600080604083850312156133d057600080fd5b82356133db81613e8e565b946020939093013593505050565b600080604083850312156133fc57600080fd5b823561340781613e8e565b9150602083013561334f81613eb1565b60006020828403121561342957600080fd5b815161303b81613ea3565b60006020828403121561344657600080fd5b5051919050565b60006020828403121561345f57600080fd5b813561303b81613eb1565b60006020828403121561347c57600080fd5b815161303b81613eb1565b600080600080600060a0868803121561349f57600080fd5b85356134aa81613eb1565b945060208601356134ba81613e8e565b935060408601356001600160401b03808211156134d657600080fd5b6134e289838a01613197565b945060608801359150808211156134f857600080fd5b5061350588828901613212565b925050608086013561351681613eb1565b809150509295509295909350565b60008060006060848603121561353957600080fd5b833561354481613eb1565b9250602084013561355481613e8e565b915060408401356001600160401b0381111561356f57600080fd5b61357b868287016132e4565b9150509250925092565b60008060008060008060c0878903121561359e57600080fd5b86356135a981613eb1565b955060208701356001600160401b03808211156135c557600080fd5b6135d18a838b0161327b565b9650604089013591506135e382613e8e565b909450606088013590808211156135f957600080fd5b5061360689828a0161327b565b935050608087013561361781613e8e565b8092505060a087013590509295509295509295565b600080600080600080600060e0888a03121561364757600080fd5b873561365281613eb1565b965060208801356001600160401b038082111561366e57600080fd5b61367a8b838c0161327b565b975060408a0135915061368c82613e8e565b909550606089013590808211156136a257600080fd5b6136ae8b838c0161327b565b95506136bc60808b01613187565b945060a08a0135935060c08a01359150808211156136d957600080fd5b506136e68a828b016132e4565b91505092959891949750929550565b60008060006060848603121561370a57600080fd5b833561371581613eb1565b9250602084013561372581613eb1565b9150604084013561373581613e8e565b809150509250925092565b600080600080600060a0868803121561375857600080fd5b853561376381613eb1565b9450602086013561377381613eb1565b9350604086013561378381613e8e565b925060608601356001600160401b038082111561379f57600080fd5b6137ab89838a01613197565b935060808801359150808211156137c157600080fd5b506137ce88828901613212565b9150509295509295909350565b600080600080608085870312156137f157600080fd5b84356137fc81613eb1565b9350602085013561380c81613eb1565b9250604085013561381c81613e8e565b915060608501356001600160401b0381111561383757600080fd5b613843878288016132e4565b91505092959194509250565b600081518084526020808501945080840160005b83811015613881578151151587529582019590820190600101613863565b509495945050505050565b600081518084526020808501945080840160005b838110156138815781516001600160601b0316875295820195908201906001016138a0565b600081518084526138dd816020860160208601613d8d565b601f01601f19169290920160200192915050565b815160009082906020808601845b838110156139245781516001600160601b0316855293820193908201906001016138ff565b50929695505050505050565b60008251613942818460208701613d8d565b9190910192915050565b60018060a01b038616815260006001600160601b038087166020840152808616604084015260a0606084015261398560a08401866138c5565b91508084166080840152509695505050505050565b60c0815260006139ad60c083018961388c565b6001600160a01b039788166020840152958716604083015250929094166060830152608082015260a00191909152919050565b60c0815260006139f360c083018961388c565b6001600160a01b03888116602085015287166040840152606083018690528281036080840152613a2381866138c5565b9150508260a0830152979650505050505050565b60208152600061303b60208301846138c5565b6020808252602c908201527f46756e6374696f6e206d7573742062652063616c6c6564207468726f7567682060408201526b19195b1959d85d1958d85b1b60a21b606082015260800190565b6020808252602c908201527f46756e6374696f6e206d7573742062652063616c6c6564207468726f7567682060408201526b6163746976652070726f787960a01b606082015260800190565b6020808252602b908201527f496e697469616c697a61626c653a20636f6e7472616374206973206e6f74206960408201526a6e697469616c697a696e6760a81b606082015260800190565b6020808252601a908201527f556e617574686f72697365643a204e6f7420616e2061646d696e000000000000604082015260600190565b6001600160601b039290921682526001600160a01b0316602082015260400190565b6001600160601b0384168152606060208201526000613ba860608301856138c5565b9050826040830152949350505050565b6001600160601b03878116825286166020808301919091526001600160a01b03868116604084015260c0606084018190528651908401819052600092878101929160e0860190855b81811015613c1e578551851683529483019491830191600101613c00565b50508581036080870152613c32818961384f565b9450505050508260a0830152979650505050505050565b6001600160601b038681168252851660208201526001600160a01b038416604082015260a060608201819052600090613c84908301856138c5565b90508260808301529695505050505050565b6001600160601b0388811682528781166020830152861660408201526001600160a01b0385811660608301528416608082015260e060a08201819052600090613ce1908301856138c5565b905082151560c083015298975050505050505050565b604051601f8201601f191681016001600160401b0381118282101715613d1f57613d1f613e78565b604052919050565b60006001600160401b03821115613d4057613d40613e78565b5060051b60200190565b60008219821115613d5d57613d5d613e4c565b500190565b60006001600160601b03808316818516808303821115613d8457613d84613e4c565b01949350505050565b60005b83811015613da8578181015183820152602001613d90565b83811115612e985750506000910152565b600181811c90821680613dcd57607f821691505b60208210811415613dee57634e487b7160e01b600052602260045260246000fd5b50919050565b6000600019821415613e0857613e08613e4c565b5060010190565b60006001600160601b0380831681811415613e2c57613e2c613e4c565b6001019392505050565b634e487b7160e01b600052600160045260246000fd5b634e487b7160e01b600052601160045260246000fd5b634e487b7160e01b600052603260045260246000fd5b634e487b7160e01b600052604160045260246000fd5b6001600160a01b03811681146111df57600080fd5b80151581146111df57600080fd5b6001600160601b03811681146111df57600080fdfe360894a13ba1a3210667c828492db98dca3e2076cc3735a920a3ca505d382bbc416464726573733a206c6f772d6c6576656c2064656c65676174652063616c6c206661696c6564a164736f6c6343000807000a",
  "linkReferences": {},
  "deployedLinkReferences": {}
}